:020000040040BA
:1000000040134020E53240002B654000B9324000EB
:10001000B9324000B9324000B9324000000000005F
:10002000000000000000000000000000352C40002F
:10003000B932400000000000E12B40008947400039
:10004000D92C4000D92C4000D92C4000D92C40009C
:10005000D92C4000D92C4000D92C4000D92C40008C
:10006000D92C4000D92C4000D92C4000D92C40007C
:10007000D92C4000D92C4000D92C4000D92C40006C
:10008000D92C4000D92C4000D92C4000D92C40005C
:10009000D92C4000D92C4000D92C4000D92C40004C
:1000A000D92C4000D92C4000D92C4000D92C40003C
:1000B000D92C4000D92C4000D92C4000D92C40002C
:1000C000D92C4000D92C4000D92C4000D92C40001C
:1000D000D92C4000D92C4000D92C4000D92C40000C
:1000E000D92C4000D92C4000D92C4000D92C4000FC
:1000F000D92C4000D92C4000D92C4000D92C4000EC
:10010000D92C4000D92C4000D92C4000D92C4000DB
:10011000D92C4000D92C4000D92C4000D92C4000CB
:10012000D92C4000D92C4000D92C4000D92C4000BB
:10013000D92C4000D92C4000D92C4000D92C4000AB
:10014000D92C4000D92C4000D92C4000D92C40009B
:0C015000D92C4000D92C4000D92C4000D4
:04015C00FFFFFFFFA3
:1001600081F0004102E000BF83F0004330B54FEA68
:1001700041044FEA430594EA050F08BF90EA020FD5
:100180001FBF54EA000C55EA020C7FEA645C7FEA68
:10019000655C00F0E2804FEA5454D4EB5555B8BF8B
:1001A0006D420CDD2C4480EA020281EA030382EAFC
:1001B000000083EA010180EA020281EA0303362D8E
:1001C00088BF30BD11F0004F4FEA01314FF4801C61
:1001D0004CEA113102D0404261EB410113F0004F73
:1001E0004FEA03334CEA133302D0524263EB43032A
:1001F00094EA050F00F0A780A4F10104D5F1200EC8
:100200000DDB02FA0EFC22FA05F2801841F1000122
:1002100003FA0EF2801843FA05F359410EE0A5F1F6
:1002200020050EF1200E012A03FA0EFC28BF4CF027
:10023000020C43FA05F3C01851EBE37101F00045DD
:1002400007D54FF0000EDCF1000C7EEB00006EEBEA
:100250000101B1F5801F1BD3B1F5001F0CD3490874
:100260005FEA30004FEA3C0C04F101044FEA4452CB
:1002700012F5800F80F09A80BCF1004F08BF5FEA52
:10028000500C50F1000041EB045141EA050130BD32
:100290005FEA4C0C404141EB0101013C28BFB1F544
:1002A000801FE9D291F0000F04BF01460020B1FA8F
:1002B00081F308BF2033A3F10B03B3F120020CDA62
:1002C0000C3208DD02F1140CC2F10C0201FA0CF040
:1002D00021FA02F10CE002F11402D8BFC2F1200CA5
:1002E00001FA02F120FA0CFCDCBF41EA0C0190405B
:1002F000E41AA2BF01EB0451294330BD6FEA0404A4
:100300001F3C1CDA0C340EDC04F11404C4F120028E
:1003100020FA04F001FA02F340EA030021FA04F3A0
:1003200045EA030130BDC4F10C04C4F1200220FAF7
:1003300002F001FA04F340EA0300294630BD21FA35
:1003400004F0294630BD94F0000F83F4801306BFFB
:1003500081F480110134013D4EE77FEA645C18BFEF
:100360007FEA655C29D094EA050F08BF90EA020F86
:1003700005D054EA000C04BF1946104630BD91EA7E
:10038000030F1EBF0021002030BD5FEA545C05D181
:100390004000494128BF41F0004130BD14F58004C0
:1003A0003CBF01F5801130BD01F0004545F0FE4134
:1003B00041F470014FF0000030BD7FEA645C1ABF69
:1003C000194610467FEA655C1CBF0B46024650EAA0
:1003D000013406BF52EA033591EA030F41F40021CC
:1003E00030BD00BF90F0000F04BF0021704730B552
:1003F0004FF4806404F132044FF000054FF0000127
:1004000050E700BF90F0000F04BF0021704730B5E7
:100410004FF4806404F1320410F0004548BF4042BC
:100420004FF000013EE700BF42004FEAE2014FEA11
:1004300031014FEA02701FBF12F07F4393F07F4FEC
:1004400081F06051704732F07F4208BF704793F0EF
:100450007F4F04BF41F40021704730B54FF4607402
:1004600001F0004521F000411CE700BF50EA010205
:1004700008BF704730B54FF000050AE050EA0102AE
:1004800008BF704730B511F0004502D5404261EB1E
:1004900041014FF4806404F132045FEA915C3FF45F
:1004A000D8AE4FF003025FEADC0C18BF03325FEAFC
:1004B000DC0C18BF033202EBDC02C2F1200300FAAD
:1004C00003FC20FA02F001FA03FE40EA0E0021FAD2
:1004D00002F11444BDE600BF70B54FF0FF0C4CF4C0
:1004E000E06C1CEA11541DBF1CEA135594EA0C0F72
:1004F00095EA0C0F00F0DEF82C4481EA030621EAAD
:100500004C5123EA4C5350EA013518BF52EA0335E7
:1005100041F4801143F4801338D0A0FB02CE4FF099
:100520000005E1FB02E506F00042E0FB03E54FF0C9
:100530000006E1FB03569CF0000F18BF4EF0010EC1
:10054000A4F1FF04B6F5007F64F5407404D25FEABD
:100550004E0E6D4146EB060642EAC62141EA555170
:100560004FEAC52040EA5E504FEACE2EB4F1FD0CB2
:1005700088BFBCF5E06F1ED8BEF1004F08BF5FEA30
:10058000500E50F1000041EB045170BD06F00046E2
:1005900046EA010140EA020081EA0301B4EB5C048F
:1005A000C2BFD4EB0C0541EA045170BD41F4801187
:1005B0004FF0000E013C00F3AB8014F1360FDEBFAC
:1005C000002001F0004170BDC4F10004203C35DA88
:1005D0000C341BDC04F11404C4F1200500FA05F30B
:1005E00020FA04F001FA05F240EA020001F00042AC
:1005F00021F0004110EBD37021FA04F642EB060122
:100600005EEA430E08BF20EAD37070BDC4F10C044B
:10061000C4F1200500FA04F320FA05F001FA04F20F
:1006200040EA020001F0004110EBD37041F10001FB
:100630005EEA430E08BF20EAD37070BDC4F1200506
:1006400000FA05F24EEA020E20FA04F301FA05F26E
:1006500043EA020321FA04F001F0004121FA04F216
:1006600020EA020000EBD3705EEA430E08BF20EAE6
:10067000D37070BD94F0000F0FD101F00046400020
:1006800041EB010111F4801F08BF013CF7D041EAA2
:10069000060195F0000F18BF704703F000465200A6
:1006A00043EB030313F4801F08BF013DF7D043EA77
:1006B0000603704794EA0C0F0CEA135518BF95EA2D
:1006C0000C0F0CD050EA410618BF52EA4306D1D1B4
:1006D00081EA030101F000414FF0000070BD50EAD3
:1006E000410606BF1046194652EA430619D094EA5D
:1006F0000C0F02D150EA013613D195EA0C0F05D147
:1007000052EA03361CBF104619460AD181EA03019A
:1007100001F0004141F0FE4141F470014FF0000052
:1007200070BD41F0FE4141F4780170BD70B54FF0ED
:10073000FF0C4CF4E06C1CEA11541DBF1CEA13556D
:1007400094EA0C0F95EA0C0F00F0A7F8A4EB05044F
:1007500081EA030E52EA03354FEA013100F0888046
:100760004FEA03334FF0805545EA131343EA12630F
:100770004FEA022245EA111545EA10654FEA0026C4
:100780000EF000419D4208BF964244F1FD0404F57D
:10079000407402D25B084FEA3202B61A65EB0305D9
:1007A0005B084FEA32024FF480104FF4002CB6EB96
:1007B000020E75EB030E22BFB61A754640EA0C0016
:1007C0005B084FEA3202B6EB020E75EB030E22BF56
:1007D000B61A754640EA5C005B084FEA3202B6EB97
:1007E000020E75EB030E22BFB61A754640EA9C0056
:1007F0005B084FEA3202B6EB020E75EB030E22BF26
:10080000B61A754640EADC0055EA060E18D04FEAE3
:10081000051545EA16754FEA06164FEAC30343EA83
:1008200052734FEAC2025FEA1C1CC0D111F4801F50
:100830000BD141EA00014FF000004FF0004CB6E749
:1008400011F4801F04BF01430020B4F1FD0C88BFE8
:10085000BCF5E06F3FF6AFAEB5EB030C04BFB6EBF3
:10086000020C5FEA500C50F1000041EB045170BDE6
:100870000EF0004E4EEA113114EB5C04C2BFD4EB13
:100880000C0541EA045170BD41F480114FF0000E97
:10089000013C90E645EA060E8DE60CEA135594EA13
:1008A0000C0F08BF95EA0C0F3FF43BAF94EA0C0F16
:1008B0000AD150EA01347FF434AF95EA0C0F7FF48B
:1008C00025AF104619462CE795EA0C0F06D152EADF
:1008D00003353FF4FDAE1046194622E750EA4106C3
:1008E00018BF52EA43067FF4C5AE50EA41047FF4D4
:1008F0000DAF52EA43057FF4EBAE12E74FEA410237
:10090000B2F1E04324BFB3F5001CDCF1FE5C0DD96D
:1009100001F0004C4FEAC0024CEA5070B2F1004FB7
:1009200040EB830008BF20F00100704711F0804FBA
:1009300021D113F13872BCBF01F00040704741F47F
:1009400080114FEA5252C2F11802C2F1200C10FA83
:100950000CF320FA02F018BF40F001004FEAC12367
:100960004FEAD32303FA0CFC40EA0C0023FA02F30B
:100970004FEA4303CCE77FEA625307D150EA0133E1
:100980001EBF4FF0FE4040F44000704701F00040B1
:1009900040F0FE4040F40000704700BF80F000408F
:1009A00002E000BF81F0004142001FBF5FEA410347
:1009B00092EA030F7FEA226C7FEA236C6AD04FEA47
:1009C0001262D2EB1363C1BFD2184140484041408C
:1009D000B8BF5B42192B88BF704710F0004F40F43E
:1009E000000020F07F4018BF404211F0004F41F45A
:1009F000000121F07F4118BF494292EA030F3FD026
:100A0000A2F1010241FA03FC10EB0C00C3F1200338
:100A100001FA03F100F0004302D5494260EB4000C7
:100A2000B0F5000F13D3B0F1807F06D340084FEA32
:100A3000310102F10102FE2A51D2B1F1004F40EB27
:100A4000C25008BF20F0010040EA0300704749008F
:100A500040EB0000013A28BFB0F5000FEDD2B0FA2C
:100A600080FCACF1080CB2EB0C0200FA0CF0AABF4F
:100A700000EBC25052421843BCBFD04018437047ED
:100A800092F0000F81F4000106BF80F400000132F3
:100A9000013BB5E74FEA41037FEA226C18BF7FEACA
:100AA000236C21D092EA030F04D092F0000F08BF0C
:100AB0000846704790EA010F1CBF0020704712F0F3
:100AC0007F4F04D1400028BF40F00040704712F132
:100AD00000723CBF00F50000704700F0004343F097
:100AE000FE4040F4000070477FEA226216BF0846CD
:100AF0007FEA23630146420206BF5FEA412390EA90
:100B0000010F40F4800070474FF0000304E000BF85
:100B100010F0004348BF40425FEA000C08BF704736
:100B200043F0964301464FF000001CE050EA0102FA
:100B300008BF70474FF000030AE000BF50EA01020F
:100B400008BF704711F0004302D5404261EB4101FC
:100B50005FEA010C02BF84460146002043F0B64321
:100B600008BFA3F18053A3F50003BCFA8CF2083A46
:100B7000A3EBC25310DB01FA02FC634400FA02FC4F
:100B8000C2F12002BCF1004F20FA02F243EB020056
:100B900008BF20F00100704702F1200201FA02FCB8
:100BA000C2F1200250EA4C0021FA02F243EB0200AB
:100BB00008BF20EADC7070474FF0FF0C1CEAD052EF
:100BC0001EBF1CEAD15392EA0C0F93EA0C0F6FD0B0
:100BD0001A4480EA010C400218BF5FEA41211ED08E
:100BE0004FF0006343EA501043EA5111A0FB01317A
:100BF0000CF00040B1F5000F3EBF490041EAD3714F
:100C00005B0040EA010062F17F02FD2A1DD8B3F1CA
:100C1000004F40EBC25008BF20F00100704790F039
:100C2000000F0CF0004C08BF49024CEA502040EA8B
:100C300051207F3AC2BFD2F1FF0340EAC250704751
:100C400040F400004FF00003013A5DDC12F1190F8F
:100C5000DCBF00F000407047C2F10002410021FA01
:100C600002F1C2F1200200FA02FC5FEA310040F119
:100C7000000053EA4C0308BF20EADC70704792F092
:100C8000000F00F0004C02BF400010F4000F013ACA
:100C9000F9D040EA0C0093F0000F01F0004C02BFC5
:100CA000490011F4000F013BF9D041EA0C018FE734
:100CB0000CEAD15392EA0C0F18BF93EA0C0F0AD03A
:100CC00030F0004C18BF31F0004CD8D180EA010060
:100CD00000F00040704790F0000F17BF90F0004FF9
:100CE000084691F0000F91F0004F14D092EA0C0FDB
:100CF00001D142020FD193EA0C0F03D14B0218BF6E
:100D0000084608D180EA010000F0004040F0FE40B3
:100D100040F40000704740F0FE4040F4400070474F
:100D20004FF0FF0C1CEAD0521EBF1CEAD15392EACE
:100D30000C0F93EA0C0F69D0A2EB030280EA010CBE
:100D400049024FEA402037D04FF0805343EA111157
:100D500043EA10130CF000408B4238BF5B0042F1B5
:100D60007D024FF4000C8B4224BF5B1A40EA0C005A
:100D7000B3EB510F24BFA3EB510340EA5C00B3EB8C
:100D8000910F24BFA3EB910340EA9C00B3EBD10F7A
:100D900024BFA3EBD10340EADC001B0118BF5FEACC
:100DA0001C1CE0D1FD2A3FF650AF8B4240EBC250F5
:100DB00008BF20F0010070470CF0004C4CEA5020B6
:100DC0007F32C2BFD2F1FF0340EAC250704740F405
:100DD00000004FF00003013A37E792F0000F00F0F7
:100DE000004C02BF400010F4000F013AF9D040EA75
:100DF0000C0093F0000F01F0004C02BF490011F409
:100E0000000F013BF9D041EA0C0195E70CEAD15300
:100E100092EA0C0F08D142027FF47DAF93EA0C0FE7
:100E20007FF470AF084676E793EA0C0F04D14B02CB
:100E30003FF44CAF08466EE730F0004C18BF31F07D
:100E4000004CCAD130F000427FF45CAF31F0004377
:100E50007FF43CAF5FE700BF4FEA4002B2F1FE4FC4
:100E60000FD34FF09E03B3EB12620DD94FEA00236C
:100E700043F0004310F0004F23FA02F018BF404245
:100E800070474FF00000704712F1610F01D142022C
:100E900005D110F0004008BF6FF0004070474FF0E0
:100EA0000000704742000ED2B2F1FE4F0BD34FF05C
:100EB0009E03B3EB126209D44FEA002343F00043D0
:100EC00023FA02F070474FF00000704712F1610FF3
:100ED00001D1420202D14FF0FF3070474FF00000C5
:100EE000704700BF53B94AB9002908BF00281CBF8A
:100EF0004FF0FF314FF0FF3000F00CB8ADF1080CAF
:100F00006DE904CE00F008F8DDF804E0DDE9022325
:100F100004B07047704700BF2DE9F04F07468C467C
:100F20000846099E15463C461946002B40F0C680EF
:100F30008242B2FA82F746D94FB1C7F1200E24FAA5
:100F40000EFE00FA07F3BD404EEA030CBC404FEA28
:100F500015481FFA85FEBCFBF8F9220C08FB19C3E3
:100F600009FB0EFA42EA03439A4528D9EB1809F126
:100F7000FF3004D29A4502D9A9F102002B44A3EB19
:100F80000A03A4B2B3FBF8F208FB123302FB0EFE15
:100F900044EA0344A64514D92C1902F1FF3303D2C5
:100FA000A64501D9931E2C44A4EB0E0443EA00404D
:100FB0001EB1FC40002334607360BDE8F08F4846EA
:100FC000DDE71346F0E702B9FFDE87BB831A012194
:100FD0004FEA154EAAB2B3FBFEFC200C0EFB1C33ED
:100FE0000CFB02F840EA0343984563D9EB180CF177
:100FF000FF3004D2984502D9ACF102002B44A3EB98
:101000000803A4B2B3FBFEFC0EFB1C330CFB02F284
:1010100044EA0344A2424FD92C190CF1FF3304D205
:10102000A24202D9ACF102032C44A41ABEE7C7F1D4
:10103000200C20FA0CF800FA07F324FA0CFCBD404F
:101040004CEA03024FEA154EABB2B8FBFEFC110CA2
:101050000EFB1C800CFB03F941EA0040814504FAB9
:1010600007F423D928180CF1FF3104D2814502D9A5
:10107000ACF102012844A0EB090092B2B0FBFEFCE7
:101080000EFB1C000CFB03F842EA004398450FD905
:10109000EB180CF1FF3204D2984502D9ACF10202F0
:1010A0002B44A3EB080342EA014191E76146E2E7E2
:1010B0006246F6E76046A2E76346B6E7834205D993
:1010C0000EB1C6E900700021084676E7B3FA83F155
:1010D00081B9834201D3BA420AD8BC1A60EB030338
:1010E00001209C46002E68D0C6E9004C002164E730
:1010F0000846F7E7C1F1200C8B4022FA0CF41C43A0
:1011000002FA01F500FA01F327FA0CF220FA0CFBBF
:101110004FEA14491343BBFBF9F81FFA84FE09FB9D
:1011200018BB1A0C08FB0EFA42EA0B42924507FA6A
:1011300001F73ED9A21808F1FF3004D2924502D936
:10114000A8F102002244A2EB0A029BB2B2FBF9F81A
:1011500009FB182208FB0EFE43EA024296452AD9F3
:10116000A21808F1FF3304D2964502D9A8F1020370
:10117000224443EA0040A0FB0593A2EB0E029A42F0
:10118000CE46984602D306D14F4504D2B9EB050EA0
:1011900063EB0408013886B1B7EB0E0362EB080776
:1011A00007FA0CFCCB404CEA0303CF40C6E90037FA
:1011B0009CE74046C7E74346DBE73146FDE60000D3
:1011C0002DE9F04FA9B06C4805F0D1FC28B96B4867
:1011D00029B0BDE8F04F04F04CBD694C206805F023
:1011E000C6FC38B923686748196829B0BDE8F04FD4
:1011F00004F03FBD2068836800211B6898470023E6
:1012000006A9614A03934FF44873206805F088FBF0
:101210004FF448735D4A09A9206805F081FB2068F6
:10122000836803A900265A4FDB69DFF868A1984755
:101230000399594804F01DFD0FF23419D9E90089CA
:101240000CAB16930423179303238DF860304A48A0
:10125000012216A983689D683823A8479DF830B0FD
:10126000BDF832504FEA0B2B6DBA0BF47C539DF84E
:1012700031B0C5F34A154BEA030B00214FF47A70E5
:1012800004F012FA2846FFF73FFCFFF7CDF842467C
:101290004B46FFF721F932463B46FEF765FFFFF765
:1012A0002DFB04905846FFF72FFC3C49FFF77AFBD3
:1012B0003B49FFF735FD05900598FFF7CDFD014649
:1012C000504604F0D6FC0498FFF7C6FD0146504690
:1012D00004F0CFFC03F00AFB01460546504604F03B
:1012E000C8FC00214FF47A7004F0DEF900230822D4
:1012F00005981295CDE91023FFF7D4FD13900498BB
:10130000FFF7D0FD4822ADF85000002116A805F0E7
:1013100031F9244B10A918221693082318A88DF828
:101320005C3005F01CF912A918220DF1610005F0DE
:1013300016F913A918220DF1650005F010F918220D
:1013400014A90DF1670005F00AF9206800238268EE
:1013500016A9CDE900334FF0FF3395684FF0FF3207
:10136000A84700210A2004F09FF969E7AFF3008045
:1013700090810C642003B93F087040006C754000F8
:10138000000040208775400090D0030000093D0018
:1013900000004940B1754000A275400000C04C44B7
:1013A00000006041230100202DE9F04F05468BB07D
:1013B00018460E4615F00303DDF8508003920193A2
:1013C00040F0F5812C1D002D40F0F48101F007065E
:1013D000341DC6F108064FF0000A0427411E52468C
:1013E000B946CDF808A0CDF800A005B12060039B58
:1013F00003F0010ECE4B9842C0F02A81CD4B9842AB
:1014000080F02681BEF1000F00F03C814FF0010C0E
:10141000A4EB050BBEF1000F00F01D81BBF5007FB2
:10142000C0F019816FF01500F5E032B9252B40F0BE
:101430002C8101220427B94627E12B2B24D81F2B0E
:1014400001D8002221E1A3F120000B28F9D80FF2E6
:10145000080C5CF820F000BF8B16400043144000DD
:10146000431440008B1640004314400043144000D6
:101470004314400043144000431440004314400010
:101480002F1640008B164000A3F12D005FFA80FC60
:10149000BCF14D0FD5D84D28D3D80FF2080C5CF80D
:1014A00020F000BF8B1640008B1640004314400014
:1014B0008B1640008B1640008B1640008B164000A8
:1014C0008B1640008B1640008B1640008B16400098
:1014D0008B1640008B16400043144000431440001C
:1014E00043144000431440004314400043144000A0
:1014F00043144000F71540004314400043144000DB
:1015000043144000F7154000F7154000F715400060
:10151000431440004314400043144000431440006F
:101520008B16400043144000431440004314400015
:10153000431440004314400043144000431440004F
:10154000431440004314400043144000431440003F
:10155000DD15400043144000431440004314400094
:10156000431440004314400043144000431440001F
:1015700043144000F715400043144000DD154000BF
:10158000DD154000F7154000F7154000F715400045
:101590008B164000DD154000251640004314400026
:1015A0008B1640004314400029164000DD15400012
:1015B00029164000431440004314400029164000FF
:1015C00035144000DD154000431440004314400032
:1015D000DD154000431440003514400011F8012C83
:1015E0006C2A23D111F8022C6C2A4FF000022DD066
:1015F0000427B9461BE008F10708073428F007085C
:1016000024F00704F8E8022355B10EEB0400B042C1
:1016100004D96FF01B000BB0BDE8F08FC4E90023C4
:1016200008340022082706E70022E1E70022013CF7
:1016300078423C44044025B1A9EB05002044B04267
:10164000E7D8732B43D158F8040BCEE60827D0E730
:101650004FF0000CDCE6009B0F2B3FF6E3AE45B3EA
:101660000AA8DDF800E0CBF387037044BCF1000F5B
:1016700019D063F07F030AF1010A00F8103C009BC7
:10168000013300930434C5F1080E11F8013F002B1B
:101690007FF4CBAE601BB0F5806FBFF4C3AE9DBBD3
:1016A000083E3044B7E700F8103C029B0133029338
:1016B000E5E7BCF1000F01D00136E0E70236CDE9E5
:1016C000041204F03CFF0644DDE90412D7E7B9F147
:1016D000040F08D108F1040015B1D8F800302360D8
:1016E00004348046D1E7B9F1080F7FF49BAE08F1CE
:1016F000070323F0070303F108081DB1D3E900BC79
:10170000C4E900BC0834C0E78008029A2B60287046
:101710006A7085F802A0BAF1000F05D006A9C5F1DC
:101720000100009A9A4207D1C5F1010939E000BFD2
:10173000D06E40002080400011F8012B170607D51D
:10174000271802F07F02B7423FF663AF04F8012B7F
:101750000133E6E7019B06AA12F80380BAF1000FF5
:1017600002D018F0800F19D10FFA88F2002355F833
:10177000221045F822300846029104F0E0FE04EB06
:101780000902471C3A44B2423FF643AF04F8018BCA
:1017900020463C443A46029904F0E1FE019B0133A5
:1017A0000193DDE900239A42D4D1601B33E76FF047
:1017B0000D0030E707293FF60EAE2AE70B6801332C
:1017C0000B60014B1B68184704004020014B186058
:1017D000704700BF0400402007B50B4600210246B9
:1017E0000348019101A900F019F803B05DF804FB6A
:1017F000BD17400030B585B0002504460395CDE9FE
:10180000010101A9044800F009F8DDE9023098421D
:10181000B8BF255405B030BD4F5C40002DE9F04FF6
:101820008B4691B092461C46002502909AF8000023
:1018300008B9284660E325280AF1010707D0594670
:10184000029B98470028C0F25783013512E2182204
:1018500000210AA804F08EFE9AF80130252B78D0DA
:1018600000221046964694461646394617F8013B24
:101870002B2B00F09D8000F29480202B00F09B80A9
:10188000232B00F09B802EB19DF8306046F00406BB
:101890008DF83060BCF1000F05D09DF8306046F047
:1018A00008068DF83060BEF1000F05D09DF830605D
:1018B00046F010068DF8306028B19DF8300040F0F9
:1018C00020008DF830002AB19DF8302042F040020F
:1018D0008DF830209DF8302002F04400442803D1D8
:1018E0006FF386128DF830209DF830202A2B42F0BD
:1018F00080028DF830207BD19DF831204B1C42F0C6
:1019000001028DF831201A782E2A9DF831200CBF63
:101910000121002161F341028DF8312074D15A7800
:101920002A2A6AD0013300210A26184610F8012B12
:10193000A2F13007092F40F28E809DF830200E91E1
:10194000C2F3400040EAD17161F341028DF83020CA
:101950005AE00AF102078DF833309DF83130D9078B
:1019600040F1498154F8049BB9F1000F07DA9DF862
:101970003020C9F1000942F004028DF830205A07E6
:1019800040F1428154F8048BB8F1000F80F241819C
:101990009DF831306FF341038DF831304FF0FF384F
:1019A00037E12D2B0CD0302B7FF46DAF01225CE79B
:1019B0004FF0010C59E74FF0010E56E7012054E7B4
:1019C000012652E70CFB02023346303A1E4616F857
:1019D000010BA0F13007092FF4D9994293D09DF85B
:1019E00030100D92D20F62F341018DF830108AE76A
:1019F0000B4600224FF00A0CE8E79DF83120023335
:101A000042F004028DF831201F4617F8012B6C2A92
:101A100041D025D8682A2BD06A2A46D04C2A4CD0EF
:101A20001F4617F8012B9DF83130782A8DF83320A6
:101A300000F2D980572A4DD8412A03D0453A022ACC
:101A400000F2D1809DF83230042262F302038DF857
:101A5000323001239EE006FB01210346303964E762
:101A6000742A26D07A2ADBD19DF8313006220DE087
:101A70005A78682A9DF8312006D1012161F3C60207
:101A80009F1C8DF83120CCE71346022262F3C60377
:101A90008DF83130C5E75A786C2A9DF8312001D194
:101AA0000421EBE713460322F0E79DF831300522CD
:101AB000ECE79DF831300722E8E7BDF8303023F439
:101AC000F04323F0020343F4804343F00203ADF8F4
:101AD0003030A6E7A2F15801202900F2848001A04D
:101AE00050F821F0A91B4000E71B4000E71B400015
:101AF000E71B4000E71B4000E71B4000E71B4000DE
:101B0000E71B4000E71B4000451A4000E71B400070
:101B1000A91B4000691B4000451A4000451A4000BF
:101B2000451A4000E71B4000691B4000E71B4000CE
:101B3000E71B4000E71B4000E71B4000B11B4000D3
:101B4000A91B4000CD1B4000E71B4000E71B4000E5
:101B5000CD1B4000E71B4000A91B4000E71B4000D5
:101B6000E71B4000A91B40009DF83210012003F044
:101B7000780360F30201402B8DF8321002BF9DF80C
:101B8000301041F001018DF83010632A31D1003B53
:101B900018BF01239DF83020C2F340010B4363F3CB
:101BA00041028DF83020D8E69DF832100220DEE7A1
:101BB00003F078039DF832200321A3F1400061F384
:101BC000020243428DF832204341E3E79DF8322080
:101BD000032113F0780F61F3020214BF01230023E5
:101BE0008DF83220D6E79DF8303043F001038DF8B0
:101BF00030300023CEE79DF93020002AB4BFDDF855
:101C000034904FF0FF39BAE69B077FF5C7AEDDF899
:101C1000388000239DF83110CDE90D339DF8323026
:101C2000C1F3C30103F00703012B38D1CB1E042BF2
:101C300022D8DFE803F003090921210054F8043B0E
:101C4000DA17CDE90A3206E0073424F00704F4E895
:101C50000223CDE90A239DF8303013F0030656D055
:101C60003B4652465946029804F049F90028C0F212
:101C700043810544BA46D9E554F8043B01294FEAAB
:101C8000E372CDE90A3205D19DF828300A9300238A
:101C90000B93E0E70229DED1BDF92830D0E7022B13
:101CA00023D1CB1E042B13D8DFE803F0030A0A125A
:101CB000120022680023201D0A920B930446CAE7F3
:101CC000E01D20F00700F0E80223CDE90A23F5E744
:101CD00054F8043B01290A934FF000030B93D3D02F
:101CE0000229B8D1BDF82830D0E7042B09D1E31D73
:101CF00023F0070303F10804D3E90023CDE90A2305
:101D0000A9E7032B04BF54F8043B0A93A3E79DF80B
:101D100033007828AED8622822D825283FF48FAD2A
:101D20005828A7D10DF126030CAA009304ABDDE9D6
:101D30000A0104F09EF88246B8F1000F0DF126006A
:101D40000CDB9DF83020A0EB0A036FF38612984558
:101D50008DF8302002D9A8EB03030D9380463DE0B7
:101D60006338152886D801A252F820F0ED1D4000F6
:101D7000511E4000751C4000751C4000751C400041
:101D8000751C4000511E4000751C4000751C400031
:101D9000751C4000751C4000AD1E40007B1E4000BD
:101DA0007F1E4000751C4000751C4000C51D400092
:101DB000751C40007B1E4000751C4000751C4000D7
:101DC0007B1E4000B8F1000FDDF828A00ADB414679
:101DD000504604F0BBFB0AEB00080026BAF1000FE6
:101DE0000CD147E7504604F0AAFBF4E70A9B002613
:101DF0000DF1100A0DF111088DF81030A8EB0A034F
:101E000006B101339DF83220D00669D5023352065F
:101E10000D9948BF0E9A0B4448BF9B18B9F1000FAB
:101E200077DD9DF83020A9EB0309C2F3800303930B
:101E300053076ED4500662D546B159463046029BD0
:101E40009847002858DB039B01351E46302357E096
:101E50001E0710D413F0100618BF2026DDE90A2350
:101E6000002BBFF65FAF52424FF02D0663EB4303EA
:101E7000CDE90A2356E72B26F0E7002652E70A9819
:101E800040B30DF126030CAA00210026009304ABF9
:101E900003F0EFFFBDF83230824603F0EF0343F466
:101EA000F04343F01003ADF8323045E70A9B0729B1
:101EB0003FF6E0AEDFE801F00C04060C08080C0C5D
:101EC0001D70D7E61D80D5E6EA17C3E90052D1E6BA
:101ED0001D60CFE6DFF8C4A006460AF105088DE7CD
:101EE000110748BF013392E7184603935946029BF6
:101EF00098470028039B04DA11B0BDE8F08F202337
:101F00004D444A46A5EB090109F1FF39002AEBDCF3
:101F10000D4636B159463046029B98470028EBDB08
:101F200001359DF83230D90601D41A0706D5594635
:101F30003020029B98470028DEDB01359DF83230C7
:101F4000DB0607D559469DF83300029B98470028C9
:101F5000D2DB01350D9E2E44731B002B16DC43464D
:101F600052465946029803F0CAFF0028C4DB0544D4
:101F7000A944A9EB0503002B7FF77CAE594620202E
:101F8000029B98470028B7DB0135F2E7594630201D
:101F9000029B98470028AFDB0135DDE7B5754000AF
:101FA000F0B583B000AF4FF02003EFF3118183F35E
:101FB0001288BFF36F8F504B5A6912F4003211D15F
:101FC000BFF34F8FBFF36F8FC3F85022BFF34F8F14
:101FD000BFF36F8F5A6942F400325A61BFF34F8FDB
:101FE000BFF36F8F444A5369DD0327D4536913F459
:101FF000803323D1C2F88430BFF34F8FD2F88030C2
:1020000043F6E075C3F3C904C3F34E335B0103EA3F
:10201000050C20464CEA80760138C2F86062F9D29D
:10202000203B13F1200FF2D1BFF34F8F536943F4DC
:1020300080335361BFF34F8FBFF36F8F2F4B304A05
:10204000A3F5C063C3F800269A6E9403FCD52D4A0D
:102050001A629A6E9003FCD51A6B22F0030242F0CA
:1020600001021A639A6E1207FCD5274A9A629A6E89
:102070009607FCD51A6B22F070021A639A6E150748
:10208000FCD51A6B22F4407242F480721A639A6E85
:102090001407FCD51A6B22F0030242F002021A6305
:1020A0009A6E1007FCD5DA6942F48032DA619A6ED2
:1020B0005206FCD581F31188BFF36F8F134B14497F
:1020C0001A6C8A4214D06C4688B01A6C11486A4661
:1020D0001061186C1B6CC2E9053104237B6042F867
:1020E0000C3F00234FF402510B4804F0F6F9A546CB
:1020F00000200C37BD46F0BD00ED00E0000C0E40A6
:102100000005000428003700013F182000090E4098
:10211000000A0DA1BB754000A8724000074B0020CB
:10212000D3F8142142F01002C3F81421D3F814217B
:1021300042F02002C3F81421704700BF008008401D
:102140001F2805D8012303FA00F0074B18617047D8
:102150003F2807D8012300F01F0003FA00F0024BCC
:10216000C3F80001704700BF00060E4030B50022E2
:1021700089B00F490F4804F075FE002200230024A7
:102180000D4D0E4928460094CDE906230E234FF449
:102190004072CDE90334CDE90144094B02F070FDF2
:1021A0000849284604F00BFD204609B030BD00BFA9
:1021B000C92140005004402088044020200C4020C9
:1021C000E1234000EC754000014802F089BE00BFE9
:1021D00040004020124B70B5BFF35B8F53E8005FA7
:1021E0006A1C43E800210029F8D1BFF35B8F2DB9A9
:1021F0000C4C0D4E361B3611B54200DB70BD237BF7
:1022000053B123689B690BB1204698476368042249
:102210002046196800F092F901351034ECE700BF50
:10222000B8064020B8724000C872400010B5044C97
:10223000237813B9034802F053FE0123237010BD25
:10224000100C4020400040200C4BBFF35B8F53E844
:10225000002F013243E800210029F8D1BFF35B8F42
:1022600058B1074BBFF35B8F53E8002F013A43E8A7
:1022700000210029F8D1BFF35B8F7047B4064020DE
:10228000B00640200020064BBFF35B8F024653E8A8
:10229000000F43E800210029F9D1BFF35B8F70479D
:1022A000B4064020F8B50B4CFFF7ECFF0A4D07468B
:1022B00000262D1B2D11AE4200DBF8BD63685B7953
:1022C0002BB123681B6913B1394620469847013664
:1022D0001034F0E7B8724000C8724000014902486B
:1022E00003F0B6BE0C734000BC06402008B5084A97
:1022F00000234FF47A701370064A1360064B074AA6
:102300001A6000F0F7FABDE80840FFF7E7BF00BF2A
:10231000110C4020B406402008004020FB63400020
:10232000014600220023014803F0B1BEBC06402054
:10233000014803F03FBF00BFBC06402001460148F2
:1023400003F084BFBC064020014803F0B3BF00BFC8
:10235000BC0640201D4B1B782DE9F041054603B912
:1023600088B304F057F8064618B16DB13046FFF750
:10237000E5FF2DB9164B1B68002B01DDFFF792FF1F
:10238000BDE8F041FFF7E0BF124BBFF35B8F53E8AE
:10239000002F013A43E800210029F8D10E4CA8464D
:1023A0000E4FBFF35B8F3F1B3F11B845DEDA63680A
:1023B0005B7923B12368314620461B68984708F1B2
:1023C00001081034F1E7BDE8F08100BF100C402097
:1023D000B4064020B0064020B8724000C8724000E9
:1023E00010B5FFF7F7FE03F077F90C4B186030B12A
:1023F0000B4B1B68092B02DD0A4802F071FD094CEA
:102400000020FFF7A7FF0028FAD14FF0FF324FF06E
:10241000FF33204602F084FDF2E700BFF0064020C3
:10242000B0064020400040201D4B13B5BFF35B8F2A
:1024300053E8002F511C43E800100028F8D1194B35
:10244000BFF35B8F1B7883B14FF02003EFF3118450
:1024500083F31288BFF36F8F0020FFF77BFF84F3B5
:102460001188BFF36F8F02B010BD0F4B1B68002B9C
:10247000F9D052B9002200230C48CDE9002342F2E2
:102480001072002303F02CFBEDE70A2AEBD107487A
:1024900004F0F4FC064802B0BDE8104002F020BD94
:1024A000B0064020110C4020F0064020500440208F
:1024B00040004020064B10B504461B689847214653
:1024C000A060044803F059FEBDE81040FFF7ACBF20
:1024D00008004020BC064020F8B50E4F3D7875B985
:1024E0000D4CFFF777FE0D4E361B3611B54207DB5C
:1024F0000020FFF72FFF0028FAD101233B70F8BD21
:1025000063685B791BB1236820465B699847013596
:102510001034EBE7110C4020B8724000C872400044
:10252000044A054B9B1AB1EBD30F34BF52F831006C
:102530000020704770724000B8724000054A43683E
:10254000801A0122196000115A7101301871FFF7C9
:102550006DBE00BFB87240000EB403B503AB0146B8
:10256000054853F8042B0193FFF758F902B05DF8C2
:1025700004EB03B0704700BF556440002DE9F047FD
:102580001D46089B17460446DA060E4605D49906F2
:102590004CBF2A492A49FFF7DFFF4FF00008DFF858
:1025A000A490A8452ADB0025DFF89C80DFF89C90EA
:1025B000DFF890A0BD422FD2725D49462046FFF75A
:1025C000CBFF0135102D20D10025DFF87880DFF812
:1025D000809020461F49FFF7BFFFAF4228D9725DA8
:1025E00049462046A2F120035F2B28BF2E22FFF789
:1025F000B3FF0135102D14D1BDE8F08749462046C0
:1026000008F10108FFF7A8FFCBE76A07D2D15146CE
:102610002046FFF7A1FFCDE741462046FFF79CFF8C
:10262000CFE76B07D9D141462046FFF795FFD4E7A6
:1026300041462046FFF790FFDBE700BFF9754000F9
:10264000F87540000376400001764000FB754000BD
:1026500007764000057640002DE9F04F1C4687B014
:1026600001F001030746059288469DF8409001F06D
:10267000020BBDF948A001F00806049303F0CEFE5A
:102680000246002844D03A493846FFF765FF054620
:10269000BBF1000F08D018F0440F3BD1224635495A
:1026A0003846FFF759FF0544049B53B1324B384677
:1026B000324953F82920324B002A08BF1A46FFF747
:1026C0004BFF3EB12F4B38462F4953F82920FFF7D7
:1026D00043FF0646BAF1000F16DB059B002B45D0E1
:1026E00001232A4C03FA09F9294B19F0100F18BFDE
:1026F0001C4651469DF84400FFF712FF2146024652
:102700003846FFF729FF0644701907B0BDE8F08F7F
:102710000546BDE71F4B18680028C4D01E4B4FF478
:102720007A784FF461614FF03C0C1B68B4FBF3F412
:10273000B4FBF0F300FB134408FB04F4B3FBF1F229
:10274000B4FBF0FE01FB123100FB1E44B1FBFCF3B5
:1027500008FB04F40CFB1311B4FBF0F000910F49DB
:10276000CDE901E03846FFF7F7FE9CE7074CC0E7EC
:10277000187640001C7640002073400041764000EF
:102780000A76400034734000447640000F764000E3
:1027900014764000F4064020F806402025764000DC
:1027A00038B50C460546E10703D5084A0849FFF746
:1027B000D3FEE20608D4A30628464CBF05490649C5
:1027C000BDE83840FFF7C8BE38BD00BF0A764000FC
:1027D00041764000F9754000F87540002DE9FF474B
:1027E0000B8806460C46904613F4E07FC3F382192B
:1027F0004CD00A784B68C2F3C202002B43D0244964
:102800005B1A43F3CF03CDF8009041463046CDE943
:1028100001230022A368FFF71FFF8246254655F8D3
:102820000C3BC3F349234BB11A482A461A4B314695
:10283000B9F1000F18BF184603F0DDF96788C7F338
:10284000CB0797B12268C2F349221544102F3C46AA
:102850002946534628BF10243046CDF80080224632
:102860002544FFF78BFE3F1BF0D1B9F1000F04D0D8
:102870004A4641463046FFF793FF304604B0BDE874
:10288000F04703F0DABD4FF0FF33BCE7CA46C5E7B7
:10289000707240008B6440005564400042F20F7338
:1028A000114A8B4273B5044628BF0B4605680521C3
:1028B000684603F0EBF9636806460B2228465B681E
:1028C0000A4903F0ADFD63683246694628465B68F5
:1028D00003F0A6FD63681B2205495B68284603F0E8
:1028E0009FFD02B070BD00BF677D4000867640004E
:1028F0006A76400010B5084A01230021074C136096
:10290000A04204D801B11360054B186010BD400807
:1029100001215B00F4E700BFF806402040420F00B1
:10292000F40640202DE9F04F85B005468846144650
:102930009946DDF840A0DDE90E6BBBF1000F37D002
:1029400000225B460C21CDF800A01046CDF80CA06B
:10295000FEF72AFD074604F0070205F0070406F11A
:102960001300144DE400144B384405EA472544EAAB
:10297000821420F0070003EAC6432C4380081C435E
:10298000FFF7CEFC054650B1BBF1000F07D05B4608
:10299000002239460C30CDF800A0FEF705FD4B466D
:1029A00022464146284605B0BDE8F04F03F07ABD07
:1029B0005F46D0E700FE07000000F87FF8B50D463F
:1029C00004464618054FB44201D12846F8BD386880
:1029D00014F8011B83685B689847F4E710074020F0
:1029E000014B024A1A60704710074020F06F400008
:1029F000024B012202481A7003F01FBD120C402046
:102A0000647340000148FFF749BF00BF6473400092
:102A10000F220148FFF7E2BE647340000149102213
:102A20000A60704710ED00E072B6404080F31188F4
:102A3000BFF36F8FBFF34F8F30BF62B6BFF36F8F9F
:102A4000704700BF2DE9F04788B081460C4600AFC3
:102A500000294BD0EA4688B04FF00508A3686D46C0
:102A60002648C7F808802E46D1E90012C5E90401BE
:102A7000C5E9062346F80C8F002332464FF4215156
:102A80001F4803F02AFD1F486369D546C7F8088030
:102A9000AD46C5F80C80D4E90312C5E90401C5E9C7
:102AA0000623002332464FF42151154803F015FD4B
:102AB0000325154AD546E3697D607D61C7E9062394
:102AC000002307F114024FF4C2510D4803F005FD35
:102AD0000E4AA3697D607D61C7E90623002307F1E3
:102AE00014024FF4C251064803F0F7FC2146484651
:102AF00001F04AFF2037BD46BDE8F087AC764000C4
:102B0000A0724000DB7640000A7740001977400051
:102B100043B2002B08DB012200F01F005B0902FA20
:102B200000F0024A42F82300704700BF00E100E0D5
:102B300043B20131002B4FEA4111C9B206DB03F168
:102B4000604303F5614383F80013704700F00F0002
:102B5000014B1954704700BF14ED00E030BFFFF780
:102B6000FDBF00BF0F4A08B522F07F020E4B9A60EE
:102B7000BFF34F8FBFF36F8FD3F8882022F470021A
:102B8000C3F88820EFF3148323F0040383F314883D
:102B9000BFF36F8F01F0A6FF02F008FE00F096FB76
:102BA00001F0AAFF0000400000ED00E0094A0A49D8
:102BB000936809685867996708494B6843F08053E0
:102BC0004B60002383F31188BFF36F8F9368986F76
:102BD000704700BFD40B40205475400000ED00E06A
:102BE00012498A684FF030001044EFF3098C80E8F6
:102BF000F01F202080F31288BFF36F8F0C4F4FF02F
:102C000000668A698A603E60506F0023536780F3D4
:102C1000118804B5104600F099FBBDE8044002F1AC
:102C2000300090E8F01F8CF309887047D40B4020E7
:102C300004ED00E01EF0040F0CBFEFF30880EFF38B
:102C40000980816911F8021C0229FFD001B503F047
:102C500064FC01BD42F8203C203A009B07495360C8
:102C6000019B21F001019360029B9161D3604FF0C1
:102C70008073D3610023026543677047A75C4000FF
:102C8000094A0346906870B113F1160F406E05D0E3
:102C9000A0F120029A4205D8834203D2814228BF84
:102CA0000020704700207047D40B402008B5094B26
:102CB0000D461446986000F049FB204685F30988CC
:102CC000002163B681F31188BFF36F8F00220023C8
:102CD00002F0E9FFD40B402001B5EFF30580A0F12D
:102CE00010004FEAC0000449014409C99847BDE8F3
:102CF000014002490847000038704000012D4000A3
:102D0000044B99689869884203D003494FF0805278
:102D10000A607047D40B402004ED00E070B588B025
:102D20003C4B022406460D4605AA4FF482513A4810
:102D300006930194059403F0FFFB384B9B6AD9047A
:102D400009D5374B05AA4FF48251334806930194B5
:102D5000059403F0F1FB314B9B6A1A050AD5314B00
:102D600005AA4FF482512C48069302230193059340
:102D700003F0E2FB294CA36A9B051FD52A4B05AA49
:102D800025484FF48251069302230193059303F0E3
:102D9000D3FBA36BA26A100410D5244A4FF4C2518E
:102DA0001D48CDE90623032305AA0193059303F0EB
:102DB000C3FB1EB1A36A23F40043A362174B9B6AB3
:102DC00059050AD51A4B05AA4FF4825112480693A9
:102DD00002230193059303F0AFFB104B9A6AD205CF
:102DE00013D5144B0693022305AA4FF482510A48C7
:102DF0000193059303F0A0FB084A0020936A43F473
:102E00007F439362287008B070BD9B6A9B04F3D522
:102E1000094BE7E747774000A072400000ED00E073
:102E20005D7740006E774000817740009A774000E0
:102E3000AF774000CA774000E277400010B588B015
:102E4000364B02244FF4825105AA3548069301946B
:102E5000059403F071FB334B9B6A9B0109D5324B00
:102E600005AA4FF482512E4806930194059403F06D
:102E700063FB2C4B9B6ADC010AD52C4B05AA4FF453
:102E800082512748069302230193059303F054FBD4
:102E9000244B9B6A18030AD5254B05AA4FF482518F
:102EA0001F48069302230193059303F045FB1D4B36
:102EB0009B6A59030AD51F4B05AA4FF48251184843
:102EC000069302230193059303F036FB154B9B6A8F
:102ED0009A030AD5184B05AA4FF48251104806935D
:102EE00002230193059303F027FB0E4B9B6ADB0340
:102EF0000AD5124B05AA4FF48251094806930223C2
:102F00000193059303F018FB064A0020936A6FEAC9
:102F100003436FEA1343936208B010BD1178400079
:102F2000A072400000ED00E0297840003C784000AD
:102F3000567840007478400099784000B37840009B
:102F40002DE9F04188B0484B02240746884647489F
:102F500015464FF4825105AA06930194059403F097
:102F6000EBFA434B9B6AD80609D5424B05AA4FF4AE
:102F700082513E4806930194059403F0DDFA3C4BE0
:102F80009B6A19070AD53C4B05AA4FF48251374872
:102F9000069302230193059303F0CEFA344CA36AFF
:102FA0009A0731D46FF01506314B9B6ADC070AD5BE
:102FB000324B05AA4FF482512C4806930223019309
:102FC000059303F0B9FA2A4B9B6A98060AD52C4B55
:102FD00005AA4FF4825125480693022301930593D5
:102FE00003F0AAFA224B9A6AD10630D49A6A920761
:102FF0002DD400201E4A936A43F0FF0393620023FE
:103000002B7008B0BDE8F0811E4B05AA4FF4825129
:103010001648069302230193059303F08DFA666B1D
:10302000A36A1B06BED5184B05AA4FF4C2510F4820
:10303000CDE9063603230193059303F07DFAB8F139
:10304000000FB1D0A36A23F08003A362ACE75B68F2
:103050001B05CED539463046FFF712FE0028C8D0F2
:1030600080F309880220C5E7DE784000A0724000A6
:1030700000ED00E0F47840006E77400055794000A4
:10308000E2774000277940003F7940007FB50AABE6
:10309000059302930122054B0193002318460093E8
:1030A000FFF740FC07B05DF804FB00BF74794000F7
:1030B000714B2DE9F0435D688FB00F464FF000086B
:1030C000C5F3080488F31188BFF36F8F02F07F43C4
:1030D000B3F17F4F0ED102F00C03082B0CD1674BDC
:1030E00009AA4FF4825166480A9302230593099373
:1030F00003F022FA474604E0120702D407464FF0D5
:10310000010800238DF81330E31E092B00F29A808A
:10311000DFE803F0058A8E879898989898920225A0
:10312000584B554E09AA4FF4825155480A934FF017
:1031300000090595099503F0FFF9F46A8DF81390DD
:103140002C400BD0504B05950A93099509AA4FF4D2
:1031500082514B48002403F0EFF90CE0F36A002B96
:1031600024DA4A4B09AA4FF4825145480A9305953F
:10317000099503F0E1F99DF81330A3B920223946EF
:1031800006A803F0ECF90D9BB8F1000F6FD0C3F364
:10319000080222B96FEA53236FEA43230D9306A96D
:1031A0002046FFF74FFC0FB0BDE8F083F36A5B00E9
:1031B000E1D5374B09AA4FF4825131480A9305955E
:1031C000099503F0B9F9BB6933F8022C4DF6027387
:1031D0009A420AD096F82830B3B10DF113020121BA
:1031E0003846FFF7ADFE0446C5E73B684FF4C251D1
:1031F000284A2348CDE90A23032309AA0593099302
:1032000003F09AF93C68B6E796F829302BB10DF136
:1032100013010120FFF782FDE5E7738D9BB2002BC0
:10322000A9D0FFF70BFEDEE70DF113020021D7E76F
:103230000DF113010020EDE7174B0A9302230593CC
:10324000099383E715F4F87F144A154BA4F1100491
:1032500018BF13460A490122CDE902340024114B5C
:103260002046019300942346FFF710FF83E723F4E1
:10327000FF7323F0010391E700ED00E0B579400012
:10328000A0724000E0794000F7794000187A4000D1
:10329000267A4000457A4000617A40009C794000DF
:1032A0008779400074794000024A536943F0100363
:1032B0005361704700ED00E0EFF30880EFF3098100
:1032C00001B57246FFF7F4FE01BD00BF00230448BC
:1032D0002021C2180133472B82F80013F9D170471F
:1032E00000E100E0202080F3118808484FF40261DB
:1032F000401880F30988EFF314800221084380F31B
:103300001488BFF36F8FFFF72DFC0000C01440201E
:10331000064B9B68834207D1EFF3058323B1044A30
:10332000536843F08053536002F0DCB9D40B402063
:1033300000ED00E0024B0121024A034800F088B88A
:10334000000046200000402074734000426E20219F
:10335000044B203A18461A60034AC3E901120121BE
:1033600000F080B81407402000000B15F0B50026CF
:1033700089B0284F8E4217DA4468002C46D0E3B15A
:1033800004F1FF3C14EA0C0F11D0234BCDE90636B3
:10339000032301930593002305AA4FF4C2511F484C
:1033A00003F09BF86FF01502104609B0F0BD1F2C1A
:1033B000EBD905681CEA050FE7D1202CD2B20568CD
:1033C000D0F808C010D9B4F1004F0FD8013CB4FABE
:1033D00084F4C4F11F0464000F2A4CEA040407D9E2
:1033E0000F4BCDE90632D3E70824F5E73E24F3E797
:1033F00025F01F05C7F8982044F001041543013259
:1034000045F01005C7F89C50C7F8A04001360C30B5
:10341000B0E700BF00ED00E0897A400098724000FC
:10342000AC7A4000044B0522C3F89420BFF34F8FC1
:10343000BFF36F8F704700BF00ED00E0BFF35F8FF9
:10344000024B0022C3F89420704700BF00ED00E05B
:1034500010B5034C01232278FFF788FF207010BDC0
:10346000140C4020094A08B500231278FFF77EFFAC
:1034700010F1160F03D0064B00220F2800DD08BD07
:10348000C3F898000130C3F8A020F6E7140C4020E0
:1034900000ED00E014490868102810B521D8FFF7A6
:1034A000CDFF124C49680022904201F10C0105D178
:1034B0000F4B18700020FFF7B5FF10BDC4F898201F
:1034C00051F80C3C23F01F031343013243F0100367
:1034D000C4F89C3051F8043C43F00103C4F8A03018
:1034E000E2E74FF0FF30E8E78073400000ED00E0D6
:1034F000140C4020014B1860704700BF0C004020A6
:1035000008B50848084B186003F031FB38B107488C
:10351000FFF7F0FF0548FEF759F9002008BD6FF0EE
:103520001200FBE7F06F40002007402031354000DB
:103530000A2838B50446074D04D1286883680D2150
:103540005B68984728688368E1B25B6898472046C3
:1035500038BD00BF2007402011F0100310B588B01F
:103560000ED1274A0692022201920592254805AA09
:103570004FF4825102F0B1FF6FF0040008B010BDAB
:1035800011F0010311D002241F4B019406930594FE
:10359000002305AA4FF482511A4802F09EFF1B4BEC
:1035A0000194069305940023E0E7C1F34201012949
:1035B00003D002290DD0164AD4E7164A5200164904
:1035C000B1FBF2F1033921FA03F2FF2A03D90133E7
:1035D000F9E7124AF2E7072B05D9114B06930223AC
:1035E00001930593DFE7416842EA0222002009685F
:1035F00042EA034220230A610B6004230B60BDE70B
:10360000037B4000807240001E7B40004F7B4000E7
:10361000657B4000A086010080D1F008801A06007A
:10362000817B4000F0B546688DB005460769D6E954
:103630000043984701220021384603F0E2FA317C2A
:10364000F06802F0BCFE707CFEF77AFD8023274A0A
:103650002360B368934233D027D8254A934231D0B0
:10366000244A934230D0244B0A93022305930993B2
:103670004FF48251002309AA204802F02EFF0021B6
:1036800041F010012846FFF767FF041E20DA2B687F
:1036900001221A4902931A4B019300231846009302
:1036A00003F0B2F820460DB0F0BD164A93420DD09B
:1036B00002F5C31202F520629342D4D10A21DFE75A
:1036C0000621DDE70221DBE70421D9E70821D7E75E
:1036D000B07C0024FFF71CFA2B68032207490293F1
:1036E0002046094B009401932346D9E740420F003E
:1036F000A0860100801A06009F7B40008072400077
:10370000BA7B400040E13300D97B40004368026946
:1037100010B51C6888B0137A73B9134A0692022256
:1037200001920592114805AA4FF4825102F0D5FE8C
:103730006FF0150008B010BD537A93B9C8074FF069
:10374000000042BF536843F0005353608B0742BFF1
:10375000536843F08053536053686360012353728E
:10376000E8E74FF0FF30E5E7037C4000B07240002F
:103770004FF47A735843174BB3FBF1F1B0B5814264
:1037800082B0C1EB013300AF01D883421CD24FF4A9
:103790007A756C4688B01048B3FBF5F36A46B1FB06
:1037A000F5F193610423106151617B6042F80C3F95
:1037B0000A4800234FF4015102F08FFE6FF015000C
:1037C000A5460837BD46B0BDB0FBF1F0C0F30B0015
:1037D000F7E700BF0020A1071F7C4000B072400047
:1037E00070B5056988B00C462B7A7BB1274B0693E0
:1037F0000223019305932648002305AA4FF4825122
:1038000002F06BFE6FF00B0008B070BD0E6816B1D1
:103810006FF01500F8E74FF400416068FFF7A8FF6C
:103820000028F5DB237B83B1022B2BD0194B0693A9
:103830000223019305931648334605AA4FF482519B
:1038400002F04BFE6FF08500DEE7A36873B14FF422
:1038500080522B60104B03EA0043C0F30B0003437C
:10386000002013436B6001232B72CDE70B4A0692B5
:103870000222019205924FF4825105AA044802F0F7
:103880002CFEC5E74FF40052E4E700BF527C400035
:10389000B0724000977C40000000FF0F747C400035
:1038A0002DE9F04F85B05C88CDE901029A88BDF81A
:1038B0003CC01444DA88BCF57A7F144404F1010456
:1038C00004D36FF0150005B0BDE8F08F3B4A0E98A9
:1038D0009042F6D84443019A4FF47A7AB2FBF4F45A
:1038E000012C38BF012400FB04F84FF6FF701A8941
:1038F000A24204DA4FF6FF739842E4D1E1E7019A5D
:10390000B2FBF8F908FB192222BB5A881FFA89F783
:103910000392039D9A882A44029DB5F802E009FBB0
:103920000CF592B2B5FBFAF57D1BAEB2029DB5F86F
:1039300006B05E4512D9DD88B54228BF35467E1EE9
:10394000761BB6B2B2420BD2D543DE883D44ADB24F
:10395000AE420FD20E9A01349044C8E75D46EEE7BE
:10396000029A9288724492B2B24225D9BD1AADB27F
:10397000AB45EFD8BEEB520F4FEA520604D2DDF84A
:103980000CE0B64528BFB64602FB0AA6B6FBF9F620
:10399000B44534BFA6EB0C06ACEB0606B042D9D951
:1039A000A2EB0E02B0B2A1F802E08A80CD800C81B9
:1039B000002ECFD1304686E73246DBE700127A0090
:1039C0002DE9F04F04469FB00F4615469846DFF8A4
:1039D0008491DFF884A12B685B0602D11FB0BDE89B
:1039E000F08F2E684821C6F3052601FB067101F011
:1039F0001F030A460833BFF34F8F203BC9F85C22F0
:103A00002032002BF9DCBFF34F8FBFF36F8F0822FA
:103A100004A8019102F0CFFF049B0C9A13F0804F91
:103A2000049B019914BFC3F31C03C3F38A4363F3DC
:103A30001C02059B0C92C3F340539DF8332063F3A3
:103A400045128DF83320049A9DF83330C2F340724A
:103A500062F386138DF83330049B9DF83300C3F373
:103A6000807363F3C710059B8DF83300C3F30340E5
:103A7000059B84468DF83400C3F300539DF8350050
:103A800063F30000059B8DF83500ADF83630059BDB
:103A90000498C3F3066B43000DD594F8810120FA16
:103AA0000BF0C00707D594F8800140FA0BF000F046
:103AB000010090428FD14FF0010ED4F87C010EFA34
:103AC0000BFE1EEA000F08D0D4F8780120FA0BF0A4
:103AD00000F0010090427FF47EAF1AF80C20402ADB
:103AE0002CD80332083112F0FC020FD001F01F0075
:103AF0000B461044BFF34F8F2038C9F85C32203397
:103B00000028F9DCBFF34F8FBFF36F8F0EA802F0D0
:103B100052FF9DF933200FFA8BF3002A04EB830345
:103B2000ABBF1A6DD3F8C020D3F8E010D3F8501112
:103B30000AB10CA89047C8F800604CE7074B09AAE7
:103B40004FF4825106480A9302230393099302F02B
:103B50003DFFF0E700ED00E0DC7E4000D77C400058
:103B60007072400070B5B9B18B880D89013BC46992
:103B70006E1E1C4D1B0205EA06459BB22B43CD88E9
:103B8000013D05F07F052B43C3610B88C169F3B983
:103B900004F07E430B43C361C2B19388D188013BDB
:103BA000C46801391B02090103F4F853C9B20B437D
:103BB00011890139090401F4F8110B43C36013881A
:103BC0004BB9C36804F00F041C43C46070BD013BD3
:103BD00041EA4363DFE7013BC26803F00F0313438D
:103BE000C360F3E70000FF0170B5046888B01646B3
:103BF00000234FF47A7220460D4602F0ECFE70B1BD
:103C0000104B06930223104805AA4FF482510193EA
:103C1000059302F0DBFE6FF0040008B070BDA369ED
:103C200032462946204643F00203A361FFF79AFF7C
:103C30004FF47A72002302F0EFFE0028EDD0034B20
:103C4000DFE700BFE87C400070724000027D40006A
:103C500030B5046889B04FF47A72002320460D46CF
:103C600002F0B9FE70B1254B05AA25484FF48251E8
:103C7000069302230193059302F0A8FE6FF004005F
:103C800009B030BDA36943F00203A361032D07D837
:103C9000DFE805F0021B2330A36923F0A003A36132
:103CA0004FF47A720023204602F0B6FE0028E7D0D7
:103CB000144B05AA12484FF4825106930223019334
:103CC000059302F083FE0020DAE7A36923F0800366
:103CD000A361A36943F02003E1E7A36923F0200374
:103CE000A361A36943F08003A361236943F0100338
:103CF0002361D5E7A36943F0A003F5E7E87C400022
:103D000070724000027D40002DE9F04307468FB0FD
:103D10000E46154698460C68184602F06BFF08F1EF
:103D2000240002F067FF012208F11400114602F09E
:103D300068FF0122002108F13800DFF8189202F034
:103D400060FFA36923F01003A36100F0CFFD80465C
:103D5000A3691B0708D44FF47A720023204602F0AF
:103D60003AFED8B17C4B0AE000F0C0FDA0EB0800A1
:103D70004845EDD9A36943F01003A361774B0C9339
:103D80000223059376480BAA4FF482510B9302F05D
:103D90001DFE6FF004000FB0BDE8F083A36943F08F
:103DA0000203A3614FF6FC7305EA030242F4E0123A
:103DB000C4F8842005F170021A4042F40022C4F8CD
:103DC000882005F1B0021A4042F44032C4F8A02025
:103DD00005F5C4721A4042F44032C4F8B02005F52B
:103DE00018721A40C4F8AC2042F48032C4F8F020B3
:103DF00005F51A72134043F08073C4F8C0300723EE
:103E0000C4F8C83040F27773C4F8BC30A36943F4F7
:103E10004073A361A36923F0A403A361236923F082
:103E200010032361E36843F40003E360A36C727E34
:103E300043EA0223A364D4F8803043F02803C4F893
:103E40008030F38943B1726802A9384602F068FDF8
:103E500016301CD1434B92E7328AC2B1ADF80A301A
:103E600002A9738A3846ADF80C207268ADF80E309E
:103E700002F082FD58B13C4B0BAA4FF4C451CDE97E
:103E80000C300323364805930B9302F09FFDB38A51
:103E90005BB1B26805A9384602F058FD16301FD153
:103EA000324B0C93022301936CE7F27DC2B1ADF863
:103EB000163005A9337E3846ADF81820B268ADF843
:103EC0001A3002F059FD58B1294B0BAA4FF4C451D6
:103ED000CDE90C300323224801930B9302F076FDC9
:103EE000B38905AA02A92046ADF80830B37DADF824
:103EF0001430FFF737FE1F4B05F52C720021636568
:103F00001123A3650323E3654FF0FF33C4F8E030CA
:103F10002B469A421BD105F01F0303F52C73BFF308
:103F20004F8F154A203BC2F868522035002BF9DC30
:103F3000BFF34F8FBFF36F8F4FF47A720023204689
:103F400002F06AFD00283FF426AF0C4BA9E743F8C6
:103F5000041BDEE780C3C901E87C40001C7D4000F3
:103F600070724000367D4000587D40006A7D400000
:103F7000967D40009990820300ED00E0027D4000B4
:103F80002DE9F0430D4689B016460468DFF88C80B1
:103F9000234FDFF89090236DD8070AD5012304F151
:103FA000A40205F1B0013046236504F1A803FFF730
:103FB00007FD236DD9060AD5102304F1B40205F5D7
:103FC000C4713046236504F1B803FFF7F9FC236D93
:103FD0001A070CD5082305AA4FF4825138462365E9
:103FE0000223CDF818800193059302F0EFFC236DB6
:103FF0001B060CD5802305AA4FF482513846236551
:104000000223CDF818900193059302F0DFFC236D95
:1040100013F0990FBFD109B0BDE8F083B27D400025
:1040200070724000C87D40002DE9F04F074689B00E
:10403000884615460468DFF82091DFF820A1236D3B
:1040400013F0607F0FD04FF0607302AA01A93846C9
:104050002365D5E95C6B02F0FCFC26B15A46029957
:104060009DF80400B047236DDE043DD4236D180491
:1040700011D54FF4004305AA4FF482513848236507
:104080000223CDF818A00193059302F09FFC05F1DF
:10409000140000F025FF236D9A000DD54FF000535A
:1040A00005AA4FF482512E4823652E4B0693022316
:1040B0000193059302F08AFC236D9B030DD54FF409
:1040C000003305AA4FF4825125482365264B0693F9
:1040D00002230193059302F079FC226D234B1A42CF
:1040E000ADD109B0BDE8F08F4FF4805305F1140B4A
:1040F0002365D4F8F4309906B8D0D4F8F420C2F38C
:10410000042202F14C0108EBC10000F01F03083348
:10411000BFF34F8F203BC9F85C022030002BF9DC45
:10412000BFF34F8FBFF36F8F08EBC101CE79C4F897
:10413000F82006F01F06584600F0D2FE05EB860276
:10414000936C2BB905EB0610383000F0C9FED0E7B0
:10415000D16C00209847CCE700ED00E0DE7D400008
:1041600070724000F37D40000E7E4000009080039E
:104170002DE9F04F8FB099460C4600AF0368BA6046
:1041800099F80420FB600F2A99F8031098BF734B2D
:104190004FEAD1108CBF40259D5C0023C7E9063350
:1041A000C1F38013402D4FEA431360F3861399F84F
:1041B0000500FB7602F00F0360F30413C1F3401017
:1041C00060F3451363F07F03BB7718D96C4688B062
:1041D000634B4FF401516A466248C2E904354023FB
:1041E0009361042342F80C3F3B6202F0EFFBA546CB
:1041F0006FF0150840463C37BD46BDE8F08F890694
:104200000FD40F2A0DD9584B4FF4C2515548C7E966
:104210000C32032307F12C027B61FB6202F0D6FB18
:10422000E6E7FB685B6C1B0600F19180D7E9182379
:1042300004F1140000F074FE8046002840F08A80EB
:1042400004F1240B4FF0FF324FF0FF335846033593
:1042500000F08CFDFB684FF0000025F00305D3F85B
:10426000C420C2F3044A94F8822194F882115209BE
:104270006AF3040062F34710561C99F90320F8779B
:10428000482066F34711002A00FB0AF384F88211E4
:10429000BA6903F51A76D9F800107B60BB68ACBF29
:1042A00061F39C4261F31C0207F118011E44BA61DC
:1042B0000822304602F07FFB7B682A4609F108019C
:1042C00003F51C70BB681844B86002F074FB06F07C
:1042D0001F020832BFF34F8F2449B868203AC1F853
:1042E00068622036002AF9DCBFF34F8FBFF36F8F6F
:1042F00085B100F01F021544BFF34F8F1B490544E1
:10430000C1F8680220302A1A002AF9DCBFF34F8F67
:10431000BFF36F8F04EB8A02BB6EF96E584693644D
:10432000D1640122FB6802FA0AF2C3F8D02002F03D
:1043300050FBBB6E002B7FF45DAF04EB0A104FF017
:10434000FF324FF0FF33383000F0EAFD52E76FF0F4
:1043500072084FE76FF00A084CE700BFDC7E4000B0
:10436000297E400070724000597E400000ED00E060
:104370002DE9F04F89B091469A464FF00003DDF8E1
:10438000488005468B46D8F8042062F30A03D8F823
:104390000020ADF800304FF0000362F30A03022260
:1043A000ADF80230C3F3072362F387138DF80330AF
:1043B00000244FF0FF324FF0FF3300F0D7FC5BF8E2
:1043C0002430A7000BEB840613F0605F10D001349B
:1043D0001C2CF4D1274B05AA4FF48651264806938E
:1043E00002236FF01B040193059302F0EFFA3CE007
:1043F00004F00103009A69463046013363F3DD623D
:104400000092042202F0D7FA06F01F030433BFF330
:104410004F8F1A4A203BC2F868622036002BF9DC25
:10442000BFF34F8FBFF36F8F284602F0D2FA98F890
:104430000320012398F8071012F0400FD5F87821D7
:1044400003FA04F314BF1A439A434906C5F87821C6
:10445000D5F87C214CBF134322EA0303C5F87C3115
:104460003D44C5F85090C5F8E0A0204609B0BDE82D
:10447000F08F00BF787E40007072400000ED00E0D9
:104480002DE9F0438DB006460D469946149F90469F
:10449000002A45D097F90340002C12DB0097FFF764
:1044A00067FF10F11C0F04467ED1414B09AA4FF45F
:1044B000865140480A9302230493099302F086FA36
:1044C00072E000243A68234662F31C037A6804937E
:1044D000234662F31C0302220593C3F3076362F3CE
:1044E00087138DF817304FF0FF334FF0FF3200F095
:1044F0003DFC05F170031A68520F14D001340833E3
:10450000082CF8D12C4B09AA4FF4865129480A935C
:1045100002236FF01B040393099302F057FA42E061
:104520006FF0150440E004F00103049A04F10E005A
:1045300004A9013305EBC00563F35F7228460492BA
:10454000082202F038FA05F01F030833BFF34F8F3B
:104550001A4A203BC2F868522035002BF9DCBFF321
:104560004F8FBFF36F8F304602F033FA0123FA7892
:10457000A34012F0400F96F88021DBB214BF1A431B
:104580009A4386F88021F97996F8812149064CBF33
:10459000134322EA030386F8813106EB8406C6F84A
:1045A000C080C6F850911C3420460DB0BDE8F083A1
:1045B000987E400070724000AC7E400000ED00E04C
:1045C00070B5064688B00C4615464FF0FF324FF0E6
:1045D000FF3300F0CBFB1B2D2DDDA5F11C031B2BA6
:1045E0000CDD1E4B05AA4FF482511D480693022391
:1045F0000193059302F0EAF908B070BD0E3D002268
:1046000004EBC50344F835205A6003F01F0208325A
:10461000BFF34F8F1349203AC1F868322033002A84
:10462000F9DCBFF34F8FBFF36F8F304608B0BDE8A2
:10463000704002F0CEB9002344F8253004EB850425
:1046400004F01F030433BFF34F8F064A203BC2F828
:1046500068422034002BF9DCE3E700BFCC7E400049
:104660007072400000ED00E0014B00200B607047CD
:1046700080C3C90170B5114B4222456804461049F8
:10468000066995F84000C3F854260A6842F40052BF
:104690000A60FDF755FD022105F1200001F08FFEB3
:1046A0002046334606F5C2722946FFF72DFB044625
:1046B00008B9EB699847204670BD00BF00000E4066
:1046C00000060E4070B545680669D5E90040FDF763
:1046D00037FD05F1080001F0F9FD05F1180001F0C2
:1046E000F5FD4FF4D673326823604FF0FF33E3607B
:1046F0004FF400636360074BB3FBF2F3B3F5803F05
:1047000004D2236200205023236070BD6FF0150097
:10471000FBE700BF180D8F004FF0E0239A6919697D
:10472000986911F4803F094B094910B501D18242C3
:1047300006D21A680C6822441A604FF0E02212690F
:104740001B680A681344181A10BD00BFD00B402024
:10475000CC0B4020094B2022002083F8232047F275
:104760002F52074B1A60074B18604FF0E0235A6135
:1047700098611A6942F007021A61704700ED00E083
:10478000CC0B4020D00B402008B5FFF7C5FF0C4BE9
:104790000C4A18681168084447F230511060002232
:1047A0001A60094A1368C01AB0FBF1F001FB00332C
:1047B000136001F0DBF8BDE80840FEF7A1BA00BFC6
:1047C000D00B4020C80B4020C40B4020F8B5334C20
:1047D00059B1421C09D14FF0E022136923F00103C3
:1047E00013614FF07F432360F8BD431C266823D03C
:1047F000012824DD40F22E23984222DC471E4FF090
:104800002003EFF3118583F31288BFF36F8FFFF757
:1048100083FF4FF0E02322490022D3F818C00B6831
:104820001844204B1A60204B08601A68831A0AD576
:1048300040F2537323601AE040F22E20DEE7002797
:10484000DDE71F46DBE747F2305E121A0EFB073347
:1048500003F5EA432F33B3FBFEF30EFB032340F2D1
:104860005372934218D9114A9342E3D922604FF010
:10487000E02224689369013C9C4554614FF0000498
:1048800038BFB4449461ACEB030C6044086085F31A
:104890001188BFF36F8FA7E71346CBE7CC0B4020FF
:1048A000C80B4020D00B4020C40B4020A06EFF005E
:1048B00010B54FF02003EFF3118483F31288BFF398
:1048C0006F8FFFF729FF074B074A1B6812689B1A77
:1048D000034484F31188BFF36F8F47F23050B3FB6A
:1048E000F0F010BDC80B4020C40B402010B54FF0B5
:1048F0002003EFF3118483F31288BFF36F8FFFF768
:104900000BFF044B1B68184484F31188BFF36F8FAF
:1049100010BD00BFC80B40200E4B70B553F82040AF
:10492000013053F82060A64200D870BDD4E90035AC
:104930002846984765B1EB6830B10028B8BF4042BF
:10494000FF28A8BFFF2018705A7842F001025A7061
:104950000834E8E74075400010B5044688B0FDF71C
:10496000BBFD074B069302230193059305480023E3
:1049700005AA4FF4825101F0B0FD204602F010F973
:10498000F97E4000A07240002DE9F04105468EB04E
:104990000E464FF02003EFF3118883F31288BFF324
:1049A0006F8F00F099FE042D4FF00007044698BF6A
:1049B000224B4FF0010288BF214B384698BF53F875
:1049C000253020490295CDE903371F4BCDE900730F
:1049D0003B4602F0D6F87EB1F369C3F308035BB13E
:1049E0001A4B0C93022307930B934FF482513B46CF
:1049F0000BAA144801F071FD2CB1204602F0E2F838
:104A000008B1037803B91248124B01220D490193F2
:104A10000023CDE902400093184602F0B2F8314677
:104A20002846FFF799FF88F31188BFF36F8F204660
:104A30000EB0BDE8F041FEF76BBC00BF58754000FA
:104A4000087F4000A07240001E7F4000467F40006B
:104A5000167F4000677F400030B5002387B00122F9
:104A60000F4C01934FF4B07504EBC0140D49CDE920
:104A700004230F2205FB0011CDE9023218220A4B54
:104A800002FB00334FF4A07220460093074B00F066
:104A9000C5F8637B23F00403637307B030BD00BF28
:104AA0000805402060134020D40B4020CD6B40000F
:104AB0000122022008B5094B1A70FFF72DFF01F003
:104AC00061F80320FFF728FF00F006F9FCF778FBF8
:104AD000034A137B23F00103137308BD150C402018
:104AE0008805402002480021024A121A01F042BD06
:104AF00050004020180C402080B5DFF8BC80A6B0E4
:104B000088F3088800242D4DE0232D4EDFF8B49063
:104B100085F82230EC772C766C76AC7685F82040E0
:104B20006B6A43F4E0236B62FEF7BEFBFDF776FF92
:104B30004FF0FF33AB62EB62FEF7ACFC224DFEF7A9
:104B4000F9FBFDF7D3FB40F201132294ADF82430BA
:104B500006ABCDE91F44B36002F008F82046FFF72A
:104B6000DBFE0120FFF7D8FE00F00AFD174B1849C5
:104B70004FF480620593012328460094B561CDE986
:104B80000343CDE901444B4600F048F86A7B0746F1
:104B9000284622F004026A7302F088F82046FFF7E4
:104BA0005BFF0C4B4A4639462846F3603475C6F81D
:104BB0000480FEF77BF800BFE01C402000ED00E021
:104BC000D40B4020B14A400088054020C97F4000F6
:104BD000400F40200805402070B50E4B0E4CA342FC
:104BE00001D3002070BDD3E9030141EA000212F0B5
:104BF00003020BD19D685A61AA4201D11C33EEE732
:104C00005E6901320E6059610144F5E76FF01500ED
:104C1000E8E700BF40004020400040202DE9FF4170
:104C20000E9E00F158050F460446067304262037F1
:104C300046730D9E8673D61D0C9A26F00706C0E9B2
:104C40001655002506F1200885608844C573C566A1
:104C5000C0E90655C0E9197602920B9A01920A9AA8
:104C600000924246FDF7F6FF044B65659B6803B171
:104C70001B6F4046236704B0BDE8F081D40B402091
:104C8000F0B5002787B004460597109F04970F9F43
:104C900003970E9F02970D9F01970C9FDDE9126508
:104CA0000097FFF7BBFFB5F1FF3F08BFB6F1FF3F2D
:104CB00005D055EA060305D1204600F05BFB2046EF
:104CC00007B0F0BD32462B46024904F1180000F04F
:104CD000D3FDF4E7CD6C4000F0B5214C87B0214DF9
:104CE00026463034AE420BD31D4C0A261E4F00F030
:104CF0005DFAAC4220D307B0BDE8F04000F024BC20
:104D000054F8043C059354F8103C049354F8143CB4
:104D1000039354F8183C029354F81C3C019354F844
:104D2000203C54E90C01009354E90A23FFF776FF75
:104D300054F8303C5E65D3E7626A531C09D022EA1E
:104D4000E272206882FB062352EA030103D100F0DD
:104D500011FB3034CDE73946183000F08DFDF8E70F
:104D60004000402040004020CD6C40002DE9F34140
:104D7000044617461E464FF02003EFF3118883F3D5
:104D80001288BFF36F8FC368324A6BB18068916835
:104D9000884219D057EA060318D188F31188BFF367
:104DA0006F8F6FF00F000CE0916891F90E100133D6
:104DB0002161E3609368A36088F31188BFF36F8F6C
:104DC000002002B0BDE8F0812169F0E791F90E10F2
:104DD0006FF07E0290F90E309942A8BF19469142B9
:104DE000B8BF11468B422EDD01F0FCFE054622467F
:104DF00041461948CDE9007600F018FB0028E0D0C4
:104E00004FF02003EFF3118683F31288BFF36F8F07
:104E1000236821699C420AD04BB193F90E30994224
:104E2000A8BF19466FF07E039942B8BF1946A06823
:104E300001F0D8FE00B945B13146074800F0A4F9A9
:104E40006FF00A00BDE70025D1E786F31188BFF3B4
:104E50006F8FF5E7D40B4020160C402038B58368DF
:104E60000446002B32D01C4A9268934231D1DA7B3F
:104E7000013ADA73C368012B05D9013BC36000F026
:104E800063FB002038BD4FF02003EFF3118583F35F
:104E90001288BFF36F8F0169806801F0A3FE20467E
:104EA00001F075FFA06058B190F90E202261002238
:104EB000826701F0FBFE2946084800F065F9DEE74D
:104EC000E06085F31188BFF36F8FD8E76FF01500AE
:104ED000D8E74FF0FF30D5E7D40B4020160C402028
:104EE00038B504464FF02003EFF3118583F31288A1
:104EF000BFF36F8F01F04BFF48B10022826701F0D2
:104F0000D5FE29460548BDE8384000F03DB9D4E952
:104F100002329A4218BF0133A360F2E7160C402018
:104F200013B54FF02004EFF3118184F31288BFF31F
:104F30006F8F846844B1013C846081F31188BFF3B2
:104F40006F8F002002B010BD52EA030406D181F336
:104F50001188BFF36F8F6FF00F00F3E7CDE90023E7
:104F60000246024800F062FAECE700BF160C40204F
:104F70002DE9F04F044685B0464E4FF0FF384FF014
:104F8000FF394FF02003EFF3118783F31288BFF34B
:104F90006F8FD4F880508DB9022104F1980001F090
:104FA0003CFE002835D1002304F1880239463A48F6
:104FB0000293CDE9008900F0E7FBE2E7D4F8842012
:104FC0002B689542C4F8803001D1C4F88430D4F8FD
:104FD000983043F00203C4F89830EB6823F00403E0
:104FE00043F00103EB606B6887F31188BFF36F8FA9
:104FF000284698474FF02003EFF3118B83F3128874
:10500000BFF36F8FEB68990723F001020BD4EA60BE
:105010000EE004F1900500220121284601F0CFFEA8
:105020000028F8D1BFE723F003033068EB6070B9C4
:10503000D4F8983023F00203C4F898308BF3118829
:10504000BFF36F8FD8059CD400F0A6FA99E700272C
:10505000D0F800A03B464268014695420CD1016859
:1050600097B972683160824200D1716040F8083BA4
:10507000FFF736FF39460023BAF1000FD8D050466B
:105080000F46DAF800A0E6E772683960904208BF80
:105090007760EBE7F80B4020160C4020F0B5044693
:1050A000002089B0C4E9200004F188000E9DC4E905
:1050B000220004F19000C4E924001DB328790028DF
:1050C00040F2011008BF0120C4F8980000204FF002
:1050D000FF364FF0FF370094CDE90330CDE90100F2
:1050E000094B2046CDE90667FFF7CAFD25B12968BF
:1050F00011B1204601F063FD204609B0BDE8F04043
:1051000001F062BD0120DFE7714F400010B5084C8F
:1051100023685BB1FFF7CCFB034620680021054AFA
:105120000344BDE81040136101F07CBE10BD00BF18
:10513000080C4020D40B402010B54FF02003EFF3B3
:10514000118483F31288BFF36F8F00220B4B9042C0
:105150001A614FF00A030A4A00FB03F309DC1360EB
:10516000084B1960FFF7D2FF84F31188BFF36F8FEC
:1051700010BD022BB8BF0223F1E700BFD40B4020C3
:10518000080C4020040C402049B9EFF3058030B9E9
:10519000054B9A699B689A4201D0FDF707BD81F3E0
:1051A0001188BFF36F8F7047D40B40204FF020035E
:1051B000EFF3118183F31288BFF36F8F044B9A686A
:1051C000D37B013BD37381F31188BFF36F8F70479B
:1051D000D40B402038B502460C4801F061FD0C4D5F
:1051E000044600B9EC68AB684AB95A7BD20606D1CE
:1051F000A26922B9DA897F2A01D9AB6138BD9C4204
:1052000001D0FFF783FFAC61F8E700BFF00B40204F
:10521000D40B402070B590F90D200146437B002A45
:1052200004DA03F07F03437301F002FD4B7B154A60
:1052300063F07F0302F11C054B73D2E90734AB42E4
:105240001BD0D3B191F90E6093F90E0086420FD0B6
:10525000801B00280CDD5868C1E9003001605960EE
:105260009068431A5842BDE870405841FFF7B2BFFA
:10527000A34202D01B68002BE6D1C1E90054216093
:105280001162EDE7D40B4020014638B54FF0200302
:10529000EFF3118483F31288BFF36F8F154B164A17
:1052A00098681568A84206D1FFF730FF84F311888B
:1052B000BFF36F8F38BD00251560104A1268BAB170
:1052C000C2897F2A14D8427BD20611D10C4A90F9A8
:1052D0000E50126895420BDB0A4A904208D01A69B8
:1052E0008A4202DCFFF796FFDEE7521A1A61DDE719
:1052F0000022FBE7D40B4020000C4020080C40208B
:10530000040C40200805402070B490F90D20437B28
:10531000002A2ADBDA0628D1826932BB63F07F03D8
:10532000134A437302F11C05D2E90734AB4217D08C
:10533000B3B190F90E6093F90E108E420BD0891B19
:10534000002908DD5A68C0E900321060586000206A
:1053500070BCFFF73FBFA34202D01B68002BEAD10D
:10536000C0E9005420601062F1E770BC704700BFD4
:10537000D40B402010B54FF02002EFF3118482F3DC
:105380001288BFF36F8F427B510704D484F31188D6
:10539000BFF36F8F10BD22F004024273FFF7B4FF1A
:1053A00021460248BDE81040FFF7EEBE160C402033
:1053B00008B590F90D200146437B002A04DA03F07A
:1053C0007F03437301F034FC044B9868431A58423E
:1053D0005841BDE80840FFF7FDBE00BFD40B402098
:1053E0002DE9F041064615461C464FF02003EFF329
:1053F000118783F31288BFF36F8F01F089FC87F365
:105400001188BFF36F8FB4F1FF3F08BFB5F1FF3FC5
:1054100008D02A46234606F118000349BDE8F041AA
:1054200000F02ABABDE8F081CD6C4000074B9868C7
:10543000074B10B50C4618601146DDE90223FFF753
:10544000CFFF2046BDE81040FDF7B0BBD40B402095
:10545000000C4020F8B504464FF02003EFF311860E
:1054600083F31288BFF36F8F437B49B2DA0633D1DF
:1054700082698ABB03F07F03437301F0D9FB437B4E
:10548000174A63F07F0381734373104650F81C3F43
:1054900083421BD0D3B1176A93F90E50A94210D0A2
:1054A0006D1A002D0DDD5A68C4E9003214605C608D
:1054B0000120FFF78FFE012086F31188BFF36F8F65
:1054C000F8BDBB4202D01B68002BE5D1136AC4E9CA
:1054D00000031C601462EBE70020A173ECE700BF3F
:1054E000D40B402070B50446183001F085FC4FF015
:1054F0002003EFF3118683F31288BFF36F8F94F9C3
:105500000D20637B002A05DA03F07F0320466373D6
:1055100001F08EFB637B0B4D43F01003A8686373AF
:10552000031B58425841FFF755FE86F31188BFF31D
:105530006F8FAB68A34203D1BDE8704001F0A6BBFA
:1055400070BD00BFD40B402010B54FF02003EFF327
:10555000118483F31288BFF36F8F084B00209A6881
:10556000D37B0133D373FFF735FE84F31188BFF388
:105570006F8FBDE8104001F089BB00BFD40B402005
:10558000044B002103F11C020846C3E90722FFF780
:10559000D3BD00BFD40B4020F8B54FF02003EFF38C
:1055A000118583F31288BFF36F8F1A498868437B94
:1055B00003F07F03437301F03BFB8B6808465A7B83
:1055C00062F07F025A7350F81C2F82421CD0DAB16D
:1055D0000F6A93F90E6092F90E40A6420FD0A41BF9
:1055E000002C0CDD5168C3E900210B6053600120E1
:1055F000FFF7F0FD2846BDE8F840FDF7D7BABA42FC
:1056000002D01268002AE6D10A6AC3E900021360D8
:105610000B62ECE7D40B402050EA01032DE9F04186
:1056200005460E4603D1FFF7B7FF002033E06FF0C9
:1056300001044FF0FF33241A63EB0103012C73F1D3
:10564000000302DA01F008FC44194FF02003EFF3E5
:10565000118883F31288BFF36F8F104F104BB86817
:105660001860FFF7A5FEB8682A460E493346183081
:1056700000F002F9BA684046537B43F010035373BD
:10568000FDF794FA01F0E8FB201A63EB030301280D
:1056900073F10003C9DBBDE8F08100BFD40B4020EB
:1056A000000C4020CD6C4000B1F1FF3F08BFB0F1CD
:1056B000FF3F08B506D1074B9868FFF713FF4FF07F
:1056C000FF3008BDFFF7A8FF0A220023C117FBF730
:1056D00009FCF6E7D40B4020014B9868704700BFE7
:1056E000D40B40202DE9F04104464FF02003EFF3A6
:1056F000118683F31288BFF36F8F437B1A0705D59A
:1057000086F31188BFF36F8FBDE8F08123F020028C
:1057100042F00801D20920D14173A36813B1204699
:1057200001F08EFA04F158074FF0000804F1180058
:1057300001F062FBA56DBD4200D0B5B90120FFF7B5
:1057400049FD104B9B68A342DAD1EFF30583002B90
:10575000D6D13046FDF72AFAD2E703F05F0343F0D3
:105760000803437301F064FAD7E7284601F068FAAA
:1057700005F1180001F040FB2846C5F87880FFF7D6
:10578000C3FDD7E7D40B4020D3B5DDE90667089CFD
:10579000CDE90067FFF74AFE1CB1034B9B685B69CC
:1057A000236002B0D0BD00BFD40B40200648074A9A
:1057B0000749121A08B500F0D2FE064A0649074802
:1057C000BDE8084000F0CBBE000040205000402063
:1057D00020804000000000002080400000004020A9
:1057E000034B1B680BB9FFF763B80020704700BF7D
:1057F0000C0C4020114B10B51C689C4208BF0024C3
:10580000FFF7EEFF03466CB1D4E90402C01A62EB65
:10581000E373012873F100020DDBB0F1004F73F167
:10582000000301DB6FF00040054B1B6913B1984288
:10583000A8BF184610BD0020F6E700BF14004020A6
:10584000D40B4020036830B568B10A4A52689042D0
:1058500009D043B1D3E90421D0E90445121941EB41
:105860000501C3E90421426813605A600023C0E9BE
:10587000003330BD14004020B3F1FF3F08BFB2F148
:10588000FF3FF8B504461F46154667D081604FF0CC
:105890002003EFF3118683F31288BFF36F8F6FF04D
:1058A00001024FF0FF3C531B6CEB0703002B1BDB8B
:1058B0002B4BD3E90013521A6CEB0303551B63EB1C
:1058C0000703012D73F10002BCBF01250023C0E9CD
:1058D00004532448D0E9003C834218D1C4E9000CA9
:1058E000CCF80040446026E0FFF77AFF013547F12D
:1058F00000072D1847EBE077C4E90457E9E7521A8F
:1059000065EB07059C45C4E90425E7D01B68002B1F
:10591000E4D0D3E90417D4E904258A4275EB070ED5
:10592000EDDA8A1A67EB0505C3E904255A68C4E96C
:10593000003214605C60036883420BD09C4209D142
:10594000FFF758FF18B1084B1B69834202D00021B2
:10595000FEF73CFF86F31188BFF36F8FF8BD00BFE1
:105960000806402014004020D40B40202DE9F843C5
:105970000546FFF789FC4FF02003EFF3118483F312
:105980001288BFF36F8F244EDFF890803560244D6E
:10599000D8F80000326840454FEAE277D5E9001EAA
:1059A0000BD050B1D0E9043C9A4277EB0C0916DADF
:1059B0009B1A6CEB070CC0E9043C52184EEB07072E
:1059C000C5E9002700253560FFF714FF2946FEF7DB
:1059D000FDFE84F31188BFF36F8FBDE8F88359187B
:1059E0004EEBE377D31A002233600023C0E904238F
:1059F000C5E90017FFF726FF84F31188BFF36F8F07
:105A0000836898474FF02003EFF3118483F31288E3
:105A1000BFF36F8FBCE700BF0C0C40201400402088
:105A20000806402010B54FF02003EFF3118483F3F4
:105A30001288BFF36F8FFEF73BFF054AD2E90031B2
:105A4000C01841F1000184F31188BFF36F8F10BDBE
:105A50000806402070B504464FF02003EFF311858F
:105A600083F31288BFF36F8FD0E90A32013342F11A
:105A70000002022B72F1000304D31849D0E90A2373
:105A8000FFF7FAFE236B01332363236A73B185F3B7
:105A90001188BFF36F8F236A204698474FF0200389
:105AA000EFF3118583F31288BFF36F8F54F8186FEB
:105AB000A64200D026B985F31188BFF36F8F70BD61
:105AC000304601F0C7F80023B36785F31188BFF3B0
